:020000040800F2
:10000000B0CA002029030008C55B0008AD480008FD
:10001000895B0008A1110008617B00080000000056
:10002000000000000000000000000000690200085D
:100030001517000800000000C5020008C97200087A
:100040004303000843030008430300084303000878
:100050004303000843030008171700084303000880
:10006000430300081D170008231700084303000876
:100070004303000843030008430300084303000848
:100080004303000843030008430300084303000838
:10009000AD110008430300084303000829170008B6
:1000A0004303000843030008430300084303000818
:1000B0004303000843030008430300084303000808
:1000C00043030008430300084303000843030008F8
:1000D000430300084979000843030008F179000848
:1000E00043030008430300084303000843030008D8
:1000F00043030008430300084303000855130008A6
:1001000043030008430300084303000843030008B7
:1001100043030008430300084303000843030008A7
:1001200043030008AD130008B91300084303000897
:100130004303000843030008430300084303000887
:10014000B9110008430300084303000843030008F3
:1001500075160008811600088D160008C97A000877
:100160004303000843030008430300084303000857
:100170004303000843030008430300080000000095
:10018000430300084303000800F002F800F05CF8A5
:100190000AA090E8000C82448344AAF10107DA45E2
:1001A00001D100F051F8AFF2090EBAE80F0013F0D8
:1001B000010F18BFFB1A43F001031847A0120100FA
:1001C000C01201000A444FF0000C10F8013B13F07C
:1001D000070408BF10F8014B1D1108BF10F8015BA0
:1001E000641E05D010F8016B641E01F8016BF9D193
:1001F00013F0080F1EBF10F8014BAD1C0C1B09D1EA
:100200006D1E58BF01F801CBFAD505E014F8016B5B
:1002100001F8016B6D1EF9D59142D6D370470000ED
:100220000023002400250026103A28BF78C1FBD8FF
:10023000520728BF30C148BF0B6070471FB510F090
:1002400069F91FBD10B510BD00F091FA1146FFF716
:10025000F5FF0CF06FF900F0AFFA03B4FFF7F2FF0F
:1002600003BC00F0BFFA00002C4B19680868B0E826
:10027000F04F80F30988BFF36F8F4FF0000080F3D9
:10028000118870470000000008480068006880F38B
:1002900008884FF0000080F3148862B661B6BFF39F
:1002A0004F8FBFF36F8F00DF00BF00BF08ED00E08E
:1002B000DFF80C00016841F470010160704700BF75
:1002C00088ED00E0EFF30980BFF36F8F134B1A68DE
:1002D0001EF0100F08BF20ED108A20E9F04F1060CB
:1002E00009B44FF0500080F31188BFF34F8FBFF374
:1002F0006F8F0EF01FF94FF0000080F3118809BCDA
:1003000019680868B0E8F04F1EF0100F08BFB0EC95
:10031000108A80F30988BFF36F8F7047BC020020FA
:10032000EFF30580704700000948804709480047FF
:10033000FEE7FEE7FEE7FEE7FEE7FEE7FEE7FEE795
:10034000FEE7FEE704480549054A064B70470000F2
:100350007573000889010008B08A0020B0CA002027
:10036000B0AA0020B0AA00209FED1A1AF5EE000AEC
:1003700040EE010ABDEEE00AF5EEC00A10EE100AEA
:10038000F1EE10FA38BF401E00EE100A1349F7EEE6
:10039000001AB8EEC00A30EEC00ADFED0F0A20EEF8
:1003A000200AFCEEC00A10EE900AC0F3080000EE2E
:1003B000900A01EB8000F8EE600A90ED011A70EEF1
:1003C000600A90ED000A71EEE01A21EE800A00EE5C
:1003D000810A704783F9223E000000440C0C01089A
:1003E000DFED190AB5EEC00A60EE200ABDEEE01A94
:1003F00011EE100AF1EE10FA38BF401E00EE100A9E
:100400001349F7EE001AB8EEC00A30EEC00ADFED6D
:100410000F0A60EE200ABCEEE00A10EE100AC0F3EC
:10042000080000EE100A01EB8000B8EE400A90EDE3
:10043000011A70EEC00A90ED000A71EEE01A21EE8A
:10044000800A00EE810A704783F9223E00000044D2
:100450000C0C010853EA020C00F069802DE9F04B06
:100460004FF00006002B1FBFB3FA83F503FA05F423
:1004700024FA05F65E4012BF1643B2FA82F502FA7C
:1004800005F4C5F120051EBF22FA05FC44EA0C0460
:10049000203556EA044C4FEA144418BF641C4FF050
:1004A00000084FF00009904271EB030C39D300298A
:1004B00019BFB1FA81F701FA07F6B0FA80F700FA2E
:1004C00007F6C7F120071EBF20FA07FC46EA0C0614
:1004D0002037B6FBF4FCA7EB0507103F07F01F0B16
:1004E000CBF120060CFA0BFB2CFA06F644BFB34600
:1004F0000026202FA4BF5E464FF0000B5BEA060CDF
:1005000008BF4FF0010B19EB0B09ABFB027C48EB6A
:100510000608C01B06FB02CC0BFB03CC71EB0C01E5
:10052000C1E70B46024641464846BDE8F08B13B58D
:100530004FF000004FF00001AFF30080BDE81C4019
:10054000704710B5431C02E010F8011B71B1810720
:10055000FAD14FF0013202C88C1A8C4314EAC2114E
:10056000F9D0C01A0A0603D0C01E10BDC01A10BDB3
:100570000A0401D0801E10BD0902FCD0401E10BD2F
:10058000032A40F2308010F0030C00F0158011F8BF
:10059000013BBCF1020F624498BF11F801CB00F897
:1005A000013B38BF11F8013BA2F1040298BF00F8EB
:1005B00001CB38BF00F8013B11F0030300F02580A8
:1005C000083AC0F0088051F8043B083A51F804CBCF
:1005D000A0E80810F5E7121D5CBF51F8043B40F895
:1005E000043BAFF30080D20724BF11F8013B11F8A0
:1005F00001CB48BF11F8012B24BF00F8013B00F8E4
:1006000001CB48BF00F8012B704710B5203AC0F06D
:100610000B80B1E81850203AA0E81850B1E8185003
:10062000A0E81850BFF4F5AF5FEA027C24BFB1E840
:100630001850A0E8185044BF18C918C0BDE81040B1
:100640005FEA827C24BF51F8043B40F8043B08BFBA
:100650007047D20728BF31F8023B48BF11F8012B81
:1006600028BF20F8023B48BF00F8012B704702F07A
:10067000FF0343EA032242EA024200F002B84FF0CD
:1006800000020429C0F0128010F0030C00F01B805F
:10069000CCF1040CBCF1020F18BF00F8012BA8BF6D
:1006A00020F8022BA1EB0C0100F00DB85FEAC17C31
:1006B00024BF00F8012B00F8012B48BF00F8012BE4
:1006C00070474FF0000200B5134694469646203915
:1006D00022BFA0E80C50A0E80C50B1F12001BFF4FB
:1006E000F7AF090728BFA0E80C5048BF0CC05DF861
:1006F00004EB890028BF40F8042B08BF704748BFAF
:1007000020F8022B11F0804F18BF00F8012B704722
:1007100070477047704710B500F00CF8006810BDC6
:1007200010B5044600F006F8046010BD004870479C
:10073000508A002000487047508A00201FB584B0BE
:1007400000200A9C06AB04AA02A90094AFF3008023
:1007500018B1DDE9020108B010BD0348204000F0E7
:1007600039F800200146F6E70000207C7047754606
:10077000FFF7DCFFAE4605006946534620F0070050
:10078000854618B020B5FFF7DDFDBDE820404FF0ED
:1007900000064FF000074FF000084FF0000B21F06B
:1007A0000701AC46ACE8C009ACE8C009ACE8C00938
:1007B000ACE8C0098D46704710B50446AFF3008021
:1007C0002046BDE81040FFF748BD002801D000F0EA
:1007D00009B8704710B500F025F8BDE81040FFF7E4
:1007E000F4BF000001491820ABBEFEE7260002005E
:1007F00070B505460C460A2000E06D1C00F068F854
:1008000035B128780028F8D102E0641C00F060F8C7
:1008100014B120780028F8D1BDE870400A2000F01B
:1008200057B8000010B5022803D0410103D50DA12F
:1008300012E0002010BD010101D50FA10CE0C100A4
:1008400001D511A108E0810001D512A104E040000A
:1008500001D513A100E0002115A0FFF7C9FF012079
:1008600010BD0000496E76616C6964204F7065723E
:100870006174696F6E0000004469766964652042A6
:1008800079205A65726F00004F766572666C6F77DB
:1008900000000000556E646572666C6F77000000A2
:1008A000496E657861637420526573756C740000DD
:1008B0005349474650453A2041726974686D6574E2
:1008C000696320657863657074696F6E3A20000013
:1008D00008B569468DF800000320ABBE08BD0000D6
:1008E000464910B54A6822F440324A604A68436873
:1008F0001A434A6001684A6822F480724A600168BB
:100900004A68036942EA03224A6001684A6822F0A1
:1009100040724A6001684A6883681A434A60016805
:100920008A6822F400628A6001688A68C3681A4390
:100930008A60816A6FF07062D14201688A6822F031
:1009400070628A6001688A680CD0836A1A438A6080
:1009500001688A6822F040528A6001688A68C36A26
:100960001A4301E022F040528A6001688A6822F04E
:1009700002028A6001688A68037E42EA43028A6052
:1009800090F82010002901684A680FD042F40062F4
:100990004A6001684A6822F460424A6001684A6815
:1009A000174C436A04EB43331A4301E022F400621C
:1009B0004A600168CA6A22F47002CA620168CA6A9F
:1009C000838B104C04EB03531A43CA6201688A6894
:1009D00022F400728A6001688A6890F8303042EA36
:1009E00043228A6001688A6822F480628A60016812
:1009F0008A68406942EA8020886010BD0023014077
:100A000000E0FFFF0000F0FF07F0E4B807F078B95E
:100A1000FFF7AABCF0EE400AF5EEC00AF1EE10FABC
:100A200002DDB0EE600A7047B1EE600AFBE700003D
:100A3000002803D09FED020A80ED000A70470000F5
:100A400000000000002803D0B3EE060A80ED000A83
:100A50007047000070B52DED0C8B84B006460C4637
:100A600015469FED990AF0EE408A9FED970AB0EE89
:100A7000409A9FED950AF0EE40BA9FED930AF0EE92
:100A8000409A9FED910AB0EE40AA0EB104B11DB993
:100A900004B0BDEC0C8B70BD8C48FFF7C9FF8C48CF
:100AA000FFF7D0FF8A48D0ED000A9FED8A1A60EE6A
:100AB000810AB0EE600A00F025F9F0EE408A28EED7
:100AC000A80AF0EE408A8248D0ED000AB0EE001A83
:100AD00060EE810A9FED7F1A60EE810AB0EE600A37
:100AE00000F010F9B0EE409A29EE090AB0EE409AF3
:100AF000DFED790AB7EE000A00EEA80ADFED770A0B
:100B000000EEC90ADFED760A20EE200A754880ED76
:100B1000000A6E4890ED000ADFED730A80EE201A9D
:100B2000B7EE000A31EE000A20EE000A6D48D0ED63
:100B3000000A80EE801A6D4880ED001A94ED000ADC
:100B4000B5EEC00AF1EE10FA0DD194ED010AB5EE42
:100B5000C00AF1EE10FA06D194ED020AB5EEC00A11
:100B6000F1EE10FA46D09FED580AB0EE408A002010
:100B7000019002900390D4ED000A60EEA00A94ED7B
:100B8000011AD4ED011A41EE210A94ED021AD4EDB6
:100B9000021A41EE210AB0EE600A00F0A9F8B0EEA8
:100BA000408A94ED000A20EE080A8DED010A94EDCA
:100BB000010A20EE080A8DED020A94ED020A20EEE9
:100BC000080A8DED030ADDED010AF1EE600AB0EED0
:100BD000600AFFF719FFF0EE409A9DED031AF0EE60
:100BE000410A9DED021AB0EE410AFFF70FFFB0EE89
:100BF00040AA07E09FED340AF0EE409A9FED320ADA
:100C0000B0EE40AA95ED000AB5EEC00AF1EE10FA7A
:100C10000DD195ED010AB5EEC00AF1EE10FA06D13C
:100C200095ED020AB5EEC00AF1EE10FA3CD0B0EE36
:100C3000690A00F067F8B0EE408AB0EE690AFFF783
:100C4000E7FEB0EE40DAB0EE4A0A00F05BF8F0EEF4
:100C500040AAB0EE4A0AFFF7DBFEB0EE40BA28EE3B
:100C60002A0AD5ED010A20EE200AD5ED000A0DEE84
:100C7000200A68EE0B0A95ED021A00EE810AB0EE2A
:100C800040CA95ED010A20EE0B0AD5ED020A0AEEE4
:100C9000E00AF0EE40CAF0EE6C0AB0EE4C0AFFF744
:100CA000B5FEF0EE40BA03E09FED070AF0EE40BA61
:100CB000B0EE4A1AF0EE690AB0EE6B0A304607F061
:100CC00073FB00BFE4E600000000000030030020DA
:100CD0003403002035FA8E3CC1BFAD3B9DF8C536CC
:100CE0002F7C1C4138030020506CC24A3C0300207A
:100CF00010B507F065F9B7EE001AC1EE000AB0EEC4
:100D0000600A10BDFFF76CBB2DE9F0412DED028BA1
:100D10009AB00546B0EE408A0E4617469846002027
:100D20001790189019901490159016904DB146B1E7
:100D30003FB1B8F1000F04D0B5EEC08AF1EE10FA61
:100D400005D100201AB0BDEC028BBDE8F08196ED14
:100D5000000A8DED170A96ED010A8DED180A96ED41
:100D6000020A8DED190A97ED000A8DED140A97ED30
:100D7000010A8DED150A97ED020A8DED160A17AAE4
:100D800014A9284607F062F9402104A8FFF799FC4E
:100D900000200090019002900390002417A904A85D
:100DA0000CF0C8FF00BF30E004A800EB041090ED89
:100DB000000AD5ED000A20EE200A04A800EB04107A
:100DC000D0ED010A95ED011A00EE810A04A800EBAE
:100DD0000410D0ED020A95ED021A00EE810A04A873
:100DE00000EB0410D0ED030A95ED031A00EE810A22
:100DF00020EE080AF0EE000A80EE201A684600EBAA
:100E0000840080ED001A601CC4B2042CCCDB0024EA
:100E100010E005EB840090ED000A684600EB8400CA
:100E2000D0ED000A30EE200A05EB840080ED000AC8
:100E3000601CC4B2042CECDB28460CF0FFF8012047
:100E400080E7000001221021014801F074BF00007A
:100E50000000024000221021014801F06CBF000098
:100E6000000002407047000001221146014801F0D5
:100E700062BF00000004024000220121014801F08D
:100E80005ABF00000004024030B5437804781B02CA
:100E90001BB2234300EE103A1B4CB8EEC00AD4ED4F
:100EA000000A20EE200A81ED000AC37885781B0233
:100EB0001BB22B4300EE103AF8EEC00A94ED000A84
:100EC00060EE800AC1ED010A437904791B021BB26E
:100ED000234300EE903AF8EEE00A20EE800ADFEDC0
:100EE0000B0A81ED020A017AC3790904807941EA8B
:100EF0000321014300EE101AB8EE400A20EE200A4A
:100F000082ED000A30BD00006802002000401C4253
:100F100070470BF09DBB08F0BDBE000010B54278D5
:100F20000378120212B21A4300EE102A124BB8EEE6
:100F3000C00AD3ED010A20EE200A81ED000AC27832
:100F40008478120212B2224300EE102AF8EEC00A90
:100F500093ED010A60EE800AC1ED010A4279007941
:100F6000120212B2024300EE902AF8EEE00A20EEDE
:100F7000800A81ED020A10BD6802002010B5FFF75B
:100F800071FFFFF7C5FF07F07BFB08B1802402E08B
:100F900007F0E2FA044607F03FFD10B144F04000CC
:100FA00010BD07F0CBFC204310BD00002DE9FC4133
:100FB0000546002016460C4600900190FFF74AFFB8
:100FC000922000F0BDF806226946122000F09AF83F
:100FD000FFF738FF9DF801009DF80010000200B2F5
:100FE000084300EE100A464FB8EEC00AD7ED000ADB
:100FF00020EE200A84ED000A9DF803009DF80210FF
:10100000000200B2084300EE100AF8EEC00A97EDA5
:10101000000A60EE800AC4ED010A9DF805009DF803
:101020000410000200B2084300EE900AF8EEE00A55
:1010300020EE800A84ED020AFFF71EFF08226946AF
:10104000002000F05FF8FFF70FFF9DF800000F2869
:1010500030D19DF803009DF80210000200B2084351
:1010600000EE100AD7ED010AB8EEC00A20EE200A01
:1010700085ED000A9DF805009DF80410000200B2FD
:10108000084300EE100AF8EEC00A97ED010A60EE80
:10109000800AC5ED010A9DF807009DF806100002C0
:1010A00000B2084300EE900AF8EEE00A20EE800A53
:1010B00085ED020AFFF7CEFEA22000F041F80222E1
:1010C0006946222000F01EF8FFF7BCFE9DF80000E4
:1010D0009DF80110C00040EA5110B0F5806F01DBAF
:1010E000A0F5006000EE100AB4EE001AF8EEC00A97
:1010F000B3EE070A00EE810A86ED000ABDE8FC8126
:101100006802002070B514460D4640F0800000F0E3
:1011100017F806E0552000F013F8641E05F8010BDF
:10112000E4B2002CF6D170BD10B50C4640F0800042
:1011300000F006F8552000F003F8207010BD000004
:1011400001B582B04FF47A700090012301AA02A980
:10115000024802F03DFE9DF804000EBD641F002011
:1011600002784078D20042EA5010B0F5806F01DB7F
:10117000A0F5006000EE100AB4EE001AF8EEC00A06
:10118000B3EE070A00EE810A81ED000A704710B540
:101190000C46FFF7D5FF2046BDE81040FFF7D0BF53
:1011A000012080F3138806F003FD0000014800F0E1
:1011B00052BE0000881D0020014800F04CBE000017
:1011C000B01D002038B50E4C4FF400752560002589
:1011D000A560E560082525610A4C050A2570607048
:1011E000080AA070E170100A20716271180AA071DB
:1011F000E3716B4622460249034800F0C3FC38BD48
:10120000F026002020020020881D002038B50E4B5B
:101210004FF4007408251C6000249C60C3E903455A
:101220000A4B050A1D705870080A9870D970100A88
:1012300018715A719C71DC716B46044A024904486A
:1012400000F0A0FC38BD0000D826002018020020C5
:10125000B01D002038B50D4A40F2FE43082413604B
:1012600000239360C2E90334094A1070000A5070E9
:101270009170080AD070137153719371D3716B46DA
:101280000249044800F07EFC38BD0000D82600204A
:1012900018020020881D002008B50C4A40F2FF11FA
:1012A0000823116000219160C2E90313084A030A70
:1012B000117051709170D170137150719171D17121
:1012C0006B460249034800F05DFC08BDD8260020AB
:1012D00018020020881D002010B50446B0F9000057
:1012E000B4F90810401A0EF02DFB9FED151B53ECBE
:1012F000112B0EF026FD02D2E068401E0FE0B4F97B
:101300000000B4F90810401A0EF01CFB9FED0E1BF4
:1013100053EC112B0EF03AFBE06801D2401CE06068
:10132000B4F90810C0EB4030084400EE100ADFEDBD
:10133000080AB8EEC00A20EE200A84ED040A10BDA7
:101340000000000000FFAF400000000000FFAFC041
:10135000A005343D124A10B5506800011ED5114B4E
:10136000114C4FF00061586B0068A04202D90E4842
:101370004C3805E00A4CB834A04203D90A4850382A
:10138000016006E0064C5834A04201D9D16000E06B
:1013900091601868016841F40071016010BD00009F
:1013A000006002402C1E002058640240014801F0F9
:1013B000A7B90000342400202DE9F05FA548A64A13
:1013C000A54DC06CA54EA44F0068DFF890C2DFF8B1
:1013D0008882DFF88892DFF880A2DFF880B2DFF839
:1013E00078E29E4C483D60361837D1140CF1180C49
:1013F000A8F1300809F178090AF1300A0BF1300B35
:10140000AEF1180E90421ED9934A543A21E0B842E8
:101410002ED1202208E0504531D10A4604E04FF495
:10142000001201E04FF00062134276D08A4A9042E7
:101430004ED9A04205D0A84203D0B04201D0B84254
:101440002AD1202141E0854AA832904203D9824A1C
:10145000583A136805E0814A48329042804AF8D9E8
:101460005368A042D5D0A842D3D0B042D1D0CEE765
:101470006045D2D04045D0D04845CED0CBE7584586
:10148000CDD07045CBD0754A90329042C7D0724AC9
:1014900048329042C6D1C2E7604516D0404514D0CC
:1014A000484512D0504510D0584509D0704507D056
:1014B0006A499031884203D067494831884202D155
:1014C0004FF4001101E04FF0006163484C3829E00F
:1014D000624AA832904227D9A04205D0A84203D040
:1014E000B04201D0B84201D1202119E0604517D0A7
:1014F000404515D0484513D0504511D0584509D026
:10150000704507D055499031884203D0524948313F
:10151000884203D14FF4001102E098E04FF00061DF
:101520004D48503801604EE04C4A4832904225D92F
:10153000A04205D0A84203D0B04201D0B84201D1A8
:10154000202118E0604516D0404514D0484512D0FF
:10155000504510D0584509D0704507D03F499031CB
:10156000884203D03C494831884202D14FF40011EF
:1015700001E04FF000613A48C16024E0A04205D08C
:10158000A84203D0B04201D0B84201D1202118E0D6
:10159000604516D0404514D0484512D0504510D073
:1015A000584509D0704507D02C499031884203D066
:1015B00029494831884202D14FF4001101E04FF02F
:1015C000006127488160274C207880070CD520785F
:1015D00020F002002070207840F0040020700122EA
:1015E0001146214801F0A7FB6078204D80070CD5FB
:1015F000607820F002006070607840F00400607055
:1016000001221021284601F096FBA07880070CD516
:10161000A07820F00200A070A07840F00400A07034
:1016200001221021284601F086FB0AF0D5FD207822
:1016300040070CD5207820F004002070207840F07E
:10164000080020700A48016841F001010160BDE80E
:10165000F09F0000641F00205864024010600240A8
:1016600000600240780000200004024000000240B8
:10167000103C0140014801F043B8000074230020F1
:10168000014801F03DB8000094240020014801F019
:1016900037B800001423002001681823CAB2103A9A
:1016A000B2FBF3F2054B6FF30901032A9B5CC365A0
:1016B00000D9091D8165084670470000DE0B01084E
:1016C00010B5014600208B698A6A4FF0C07453B18F
:1016D000B3F5005F15D072B1012A0CD0022A0AD0EE
:1016E000032A09D104E01AB1012A06D0022A03D143
:1016F000C96AC90100D5012010BDC96AA142FAD04A
:1017000010BD002AF7D0012AF2D0022AF3D0032A12
:10171000F3D010BD7047012001F01CBA082001F081
:1017200019BA102001F016BA202001F013BA704740
:10173000002229B101291AD002291BD04FF440728E
:101740000E490B6823F440730B600B6813430B6066
:101750000A6822F0F8020A600A68022303EBC0005C
:1017600002430A60086840F48030086070474FF414
:101770008072E5E74FF40072E2E70000103C02409F
:101780001348016889050FD5016821F400710160D3
:10179000016841F400610160016821F400610160A9
:1017A000016841F400710160016849050FD50168C5
:1017B00021F480610160016841F480510160016899
:1017C00021F480510160016841F48061016070473B
:1017D000003C024008490A6822F440720A600A6824
:1017E00042F004020A600A684FF4803343EA0020A2
:1017F00002430A6070470000103C0240064A13682A
:1018000023F44073136013681360136843F00103FB
:101810001360017070470000103C0240084910B589
:101820000C6824F440740C600C6844F440740C6040
:101830000C6844F001040C600260436010BD0000BD
:10184000103C0240074A136823F440731360136886
:1018500043F480731360136843F001031360018045
:1018600070470000103C0240074A136823F440739D
:101870001360136843F400731360136843F00103AB
:101880001360016070470000103C0240174908686F
:10189000C206174805D5C26942F01002C261102283
:1018A0000A600A68920605D5C26942F00802C26160
:1018B00020220A600A68520605D5C26942F0040275
:1018C000C26140220A600A68120605D5C26942F068
:1018D0000202C26180220A600A68920705D5C269C5
:1018E00042F02002C2610220086070470C3C0240B6
:1018F000F027002070B5114904460020C86101F0AE
:101900001FFA05460E4E09E0601C07D024B101F015
:1019100017FA401BA04201D9032070BD3068C003F4
:10192000F2D43068C00701D001203060306810F078
:10193000F200F2D0FFF7AAFF012070BDF0270020CF
:101940000C3C024078B50024009490F83C20012A19
:1019500019D0012280F83C200A6807250368092A6B
:1019600013D9DE680A3A02EB42029540AE43DE60CC
:101970000A788B680A3A02EB420293400268D56803
:101980002B43D36010E0022078BD1E6902EB4202B7
:101990009540AE431E610A788B6802EB4202934089
:1019A000026815692B4313614A681F25072A13D261
:1019B00003685E6B521E02EB82029540AE435E638B
:1019C0000A8893B20A79521E02EB8202934002689F
:1019D000556B2B43536327E003680D2A12D21E6B0D
:1019E000D21F02EB82029540AE431E630A8893B277
:1019F0000A79D21F02EB820293400268156B2B43D7
:101A0000136311E0DE6A0D3A02EB82029540AE43A9
:101A1000DE620A8893B20A790D3A02EB82029340A1
:101A20000268D56A2B43D362164B0568144A9D425F
:101A300006D10D68122D03D1556845F48005556017
:101A400005689D4218D10B68102B01D0112B13D1C2
:101A5000536843F400035360096810290CD10A4904
:101A60000A4A0968B1FBF2F101EB8101490000E08B
:101A7000491E00910029FBD180F83C40002078BD30
:101A80000023014000200140B802002040420F0026
:101A900070B504004FF0000603D0206C002510B193
:101AA00007E0012070BD204600F01CF8656484F852
:101AB0003C50206CC00610D4206C20F4885040F0BC
:101AC000020020642046FEF70BFF6564206C20F0C6
:101AD000020040F00100206400E0012684F83C5040
:101AE000304670BD10B586B0044614216846FEF736
:101AF000E8FD174B206800221649984209D1086872
:101B000040F480700860086800F48070059006B0AA
:101B100010BD114B9842FAD1086840F4806008600B
:101B2000086800F4806005900A481438016841F0A4
:101B3000200101600068694600F02000059018153A
:101B400000900320CDE90102044801F00FF8DEE720
:101B500000200140443802400022014000140240AD
:101B600090F82020012A07D0022A05D0416A41F4CA
:101B70008021416201207047006842690A43426146
:101B800000207047F0B590F820500468A468012D3B
:101B900005D0022D03D0416A41F480215DE014F0AC
:101BA000406F01D1E50055D5C4F30164022C03D97F
:101BB000416A41F4000150E00125A5401D608B6899
:101BC0004FF4C0759BB1CE6833434E6843EAC603F9
:101BD000066805EB0417F3514FF4C273076803EB73
:101BE00004130E69FE50097D012905D009E00E8815
:101BF000CB6843EA4653EBE70168CE5846F480765B
:101C0000CE501179D379567941EA036193791B0457
:101C100043EA062319434FF4C676036806EB04161D
:101C200099511178D37841EA0361937852781B0473
:101C300043EA022211434FF4C473026803EB041316
:101C4000D150006805EB0411425842F001024250A5
:101C50000020F0BD416A41F4001141620120F0BD55
:101C600010B590F82020012A07D0022A05D0416A39
:101C700041F480214162012010BD3B48D0F8002290
:101C800042F00102C0F80022D0F8002222F47C5277
:101C9000C0F80022D0F800224B6A42EA0322C0F8C2
:101CA00000220A7D02F01F0301229A40D0F81C3264
:101CB0009343C0F81C32CB69B3B9D0F80C329343CC
:101CC000C0F80C328C894B6864F31F434C6900EBFD
:101CD000C404C4F840320C890B6864F31F434C6998
:101CE00000EBC404C4F84432CB69012B16D1D0F800
:101CF0000C321343C0F80C320C884B6864F31F435A
:101D00004C6900EBC404C4F840320C89CB6864F31E
:101D10001F434C6900EBC404C4F844328B69002BA8
:101D2000D0F804320ED01343C0F804320B69002BF4
:101D3000D0F8143208D01343C0F81432096A0129CC
:101D400004D008E09343EFE79343F5E7D0F81C1283
:101D50001143C0F81C12D0F8001221F00101C0F8A4
:101D60000012002010BD000000640040704730B534
:101D700090F82040012C05D0022C03D0416A41F498
:101D800080215DE00468002955D02469A40754D05F
:101D90004FF4D874056804EB01142D5915F00405AF
:101DA000956005682D594ED0ED08556005682C5991
:101DB000C4F34004D4604FF4DA74056804EB0114F2
:101DC0002D5905F00F05156105682D59C5F3072537
:101DD000956105682C59240C54614FF4DC72046839
:101DE00002EB0112A4581C700468A458240A5C7009
:101DF0000468A458240C9C700468A258120EDA706F
:101E00004FF4DE72046802EB0112A4581C710468DE
:101E1000A458240A5C710468A458240C9C710468BA
:101E2000A258120EDA71006881B1016941F02001F7
:101E30000161002030BDE468A8E7416A41F4001167
:101E40004162012030BD6D0D1560AFE7C16841F002
:101E50002001C160EDE72DE9F05F05460068002430
:101E60004669D0F804908768D0F80CB0D0F810A07C
:101E7000D0F81880F10748D0F90714D0012181600B
:101E8000B80703D5284600F00EFC0CE0780702D511
:101E90004FF4006407E0380702D54FF4805402E0A5
:101EA000284600F0FFFBF80516D529684FF480702E
:101EB0008860B80503D5284600F0F7FB0CE07805EC
:101EC00002D544F4005407E0380502D544F48044B8
:101ED00002E0284600F0E8FBF80316D529684FF425
:101EE00080308860B80303D5284600F0E0FB0CE0A2
:101EF000780302D544F4004407E0380302D544F4E3
:101F0000803402E0284600F0D1FB300707D55FEAB5
:101F1000CB6004D52968102044F40074C8607007B1
:101F20004FF0080707D55FEA0B7004D52868C76033
:101F3000284600F097F9B00706D52868C0688007E2
:101F400002D0284600F090F9700607D55FEACA6013
:101F500004D52968102044F480640861B00607D5D0
:101F60005FEA0A7004D528680761284600F06CFB18
:101F7000F00606D528680069800702D0284600F0E0
:101F800064FBB00308D55FEAC96005D52968102055
:101F90004860284600F05AFBF00307D55FEA097055
:101FA00004D528684760284600F082FB300446D5F7
:101FB0005FEA497040D5F00504D55FEAC87001D0EA
:101FC00044F00104B00504D55FEA887001D544F0FF
:101FD0000204700504D55FEA487001D544F004049A
:101FE000300529D518F0700F26D008F07000402871
:101FF00015D006DC102809D020280AD0302816D1A8
:102000000AE050280ED0602811D10EE044F00804F8
:102010000DE044F010040AE044F0200407E044F02E
:10202000400404E044F0800401E044F48074286833
:10203000816921F070018161296804204860002CC9
:1020400005D0686A204368622846FFF78FFEBDE826
:10205000F09F70B5040003D094F8200010B104E0A4
:10206000012070BD204600F081F82068016821F051
:102070000201016000F064FE0546052604E000F060
:102080005FFE401B0A2811D8206840688007F6D4FC
:102090002068016841F00101016000F051FE054631
:1020A0000BE000F04DFE401B0A2806D9606A40F4A0
:1020B0000030606284F82060D2E720684068C00782
:1020C000EFD0207E0128206801683DD021F08001FA
:1020D0000160607E01282068016838D021F040014D
:1020E0000160A07E01282068016833D021F0200122
:1020F0000160E07E0128206801682ED041F01001C7
:102100000160207F01282068016829D021F00801A2
:102110000160607F01282068016824D021F004015B
:102120000160D4E902010843D4E9041211430843D1
:102130006168491E08432168C8610020606201206F
:1021400084F82000002070BD41F08001C0E741F01C
:102150004001C5E741F02001CAE721F01001CFE7B7
:1021600041F00801D4E741F00401D9E7F0B587B0A8
:10217000044614216846FEF7A4FA3549354ADFF8CB
:10218000CCE00868D4F800C0324B032402250926AD
:1021900010320027401CF44521D10860012807D1E6
:1021A000106840F000701060106800F0007005903A
:1021B000186840F00800186018688DE8B00000F05A
:1021C0000800CDE9046069460394234800F0CEFC82
:1021D00000220621142001F025F9142031E0DFF857
:1021E0007CE0F4452FD1D2F800C04CF0806CC2F8EE
:1021F00000C0D2F800C001280CF0806CCDF814C0EB
:10220000086007D1106840F000701060106800F09E
:1022100000700590186840F0020018601868694660
:1022200000F00200059060208DE8A100CDE9034692
:102230000B4800F09BFC00220621402001F0F2F840
:10224000402001F0E1F807B0F0BD0000006400405C
:102250002801002030380240000C02400068004095
:10226000000402407047000030B504462DED028B9B
:1022700089B06B4602AA0021FFF779FDE948844244
:102280007DD10298E84A40F20633A0F206319FED74
:10229000E70A984274D03DDCE349B0F5017FA1F133
:1022A00050016ED01BDCA0F50070013854D001281D
:1022B00069D0022843D1088D0886BDF8000040BAD5
:1022C0000885BDF8020040BA4885BDF8040040BA50
:1022D00088859DF8060081F82E00032065E0A0F5B2
:1022E0000070073878D00A2877D0FE2827D11088C8
:1022F0001081BDF8000040BA1080BDF8020040BA5D
:102300005080BDF8040040BA90809DF8060090719E
:1023100005204AE0C44840F20B337438A1F20B3276
:1023200099426ED00FDCA1F50071FA396AD001290B
:1023300069D0022903D1BDF8001049BA818009B0E3
:10234000BDEC028B30BD012A7DD0022AF7D1BDF849
:10235000001049BA0184F2E708880881BDF800003E
:1023600040BA0880BDF8020040BA4880BDF80400B9
:1023700040BA88809DF806008871012015E006E1CA
:102380002CE015E0FFE7888A8883BDF8000040BA9A
:102390008882BDF8020040BAC882BDF8040040BA85
:1023A00008839DF806008876022007F08DFCC6E7BA
:1023B00031F83C0F0881BDF8000040BA0880BDF834
:1023C000020040BA4880BDF8040040BA88809DF8F9
:1023D000060088710420E8E716E067E0908A9083A1
:1023E000BDF8000040BA9082BDF8020040BAD08229
:1023F000BDF8040040BA10839DF8060090760620D0
:10240000D3E780E075E079E0874C2834208820818C
:10241000BDF8000040BA2080BDF8020040BA6080DC
:10242000BDF8040040BAA0809DF80600A0712046C7
:10243000FEF752FF072007F047FC7D4D95ED008A1F
:1024400085ED018A00E080E0B4F900000DF07AFA31
:102450009FED781B53EC112B0DF0D4FA0CF020FEFD
:1024600000EE100A754A85ED000A70EE480AA5F1E3
:10247000080010EE901A914202DD0188491E06E024
:1024800010EE901A6E4A914202D90188491C0180CF
:1024900001884FF4B47211FB02F100EE901AF8EECD
:1024A000E00A30EE800A80ED010A48E7BDF800003E
:1024B00000EE900A5C48F8EE600A843880EE801ADC
:1024C00080ED001ABDF8021000EE901AF8EE600AD6
:1024D00080EE801A80ED011ABDF8041000EE901A0B
:1024E000F8EE600A80EE801A80ED021ABDF8061040
:1024F00022E0BDF8001049BA018020E7BDF80010C5
:1025000049BA41801BE7BDF8001049BA00EE901AA5
:10251000F8EE600A80EE801A80ED041ABDF8021011
:1025200049BA00EE901AF8EE600A80EE801A80ED4B
:10253000021ABDF8041049BA00EE901AF8EE600ACB
:1025400080EE801A80ED031AF9E6BDF8001049BA52
:1025500000EE901AF8EE600A80EE801A80ED071AFD
:10256000BDF8021049BA00EE901AF8EE600A80EE4B
:10257000801A80ED051ABDF8041049BA00EE901AD1
:10258000F8EE600A80EE801A80ED061AD7E62D4834
:1025900084428AD1244902983C31A0F50070013868
:1025A0001AD001282BD00228A7D101F128000188D8
:1025B0000181BDF8001049BA0180BDF8021049BA86
:1025C0004180BDF8041049BA81809DF806108171E0
:1025D000FEF782FE0820E8E608880881BDF80000C2
:1025E00040BA0880BDF8020040BA4880BDF8040037
:1025F00040BA88809DF8060088710920D5E6888A4F
:102600008883BDF8000040BA8882BDF8020040BA55
:10261000C882BDF8040040BA08839DF80600887699
:102620000A20C2E6881D0020602600200000C84263
:1026300010020020BA490C022B87A63F0000344349
:10264000000034C3B01D002070477047704770B55C
:10265000044690F82000012804D0606A40F400206D
:10266000606217E0022084F820002068016821F0F1
:102670000101016000F064FB05460DE000F060FB25
:10268000401B0A2808D9606A40F4003060620520C7
:1026900084F82000012070BD20684068C007EDD19B
:1026A000606270BD704770477047704770477047F1
:1026B000704710B5040002D0607910B106E0012027
:1026C00010BD00202071204600F006F80220607145
:1026D00001206071002010BD08B5006806498842DD
:1026E00008D10648016841F480510160006800F497
:1026F0008050009008BD0000003002403038024099
:102700002DE9F84304464FF00009CDF800906348E6
:102710004FF41651A56D0068B0FBF1F72E6894F8E0
:102720005C20082101FA02F030420FD020680268D4
:1027300052070BD5026822F00402026094F85C0094
:102740008140A960606D40F00100606594F85C1004
:102750004FF0010808FA01F0304208D021684969B9
:10276000090604D5A860606D40F00200606594F829
:102770005C1004208840304208D02168096889072D
:1027800004D5A860606D40F00400606594F85C10AA
:1027900010208840304218D021680968090714D5F4
:1027A000A86020680168490304D50068000308D5C3
:1027B000A16C07E00168C90503D4016821F0080194
:1027C0000160216C09B12046884794F85C102020F4
:1027D0008840304231D021680968C9062DD5A860EB
:1027E00094F8350005282068016806D0490347D5CC
:1027F000006800031DD4616C1CE021F0160101602B
:102800002068416921F080014161206C08B9A06C09
:1028100020B12068016821F00801016094F85C1083
:102820003F208840A86084F8349084F83580216D7A
:102830001FE0E16B09B120468847606D00282BD06E
:10284000606DC00714D0052084F835002068016849
:1028500021F0010101600098401C0090B84203D8AB
:1028600020680068C007F6D184F8349084F8358079
:10287000E16C002910D001B02046BDE8F0430847C4
:102880000168C905D5D4016821F01001016084F800
:10289000349084F83580CCE7BDE8F883B802002096
:1028A0002DE9F041044600F04BFA05465CB10026E4
:1028B00084F83460022084F835002068016821F033
:1028C000010101600DE00120BDE8F08100F038FA5F
:1028D000401B052805D920206065032084F83500B9
:1028E000F2E720680068C007F0D121680A68204834
:1028F0000240D4E901031843D4E903352B431843BC
:1029000063691843A3691843E3691843236A1843AA
:102910001043626A042A03D1D4E90B231A431043FB
:10292000086020684069656A20F0070128460D4369
:10293000012704280CD1A06A0543E06A40B1204673
:10294000FEF7BEFE20B14020606584F83570BAE71E
:10295000206845612046FEF79FFE94F85C203F21E9
:1029600091408160666584F835700020ACE7000016
:102970003F8010F02DE9F047044622480E46017EC4
:1029800001290AD00121804601764CF2503948468F
:10299000FEF7B0FF020003D02FE00220BDE8F08771
:1029A0004FF0FF3030602068174F012801D0A56834
:1029B0001CE0207C6168FEF70DFF4846FEF79AFF99
:1029C0000246386820F00400386014E0217C284674
:1029D000FEF7AEFE4846FEF78DFF0200386820F095
:1029E000FA00386001D0356005E06D1CD4E90210B2
:1029F0000844A842EAD8FEF7C3FE002188F8181060
:102A00001046CBE7F0270020103C02400348016845
:102A100041F000410160002070470000103C02407E
:102A20002DE9F0471B4E05461446307E1F46894669
:102A3000012808D0012030764CF250384046FEF78D
:102A400059FF18B114E00220BDE8F0879DB1012DB7
:102A500016D0022D19D022463B464846FEF7DEFE30
:102A60004046FEF747FF0C490A6822F001020A605F
:102A700000213176E8E7E1B24846FEF7BFFEEFE716
:102A8000A1B24846FEF7DEFEEAE721464846FEF7D9
:102A9000EBFEE5E7F0270020103C0240074900204C
:102AA0000A68002A09DA054A054B0C3A1360054BFF
:102AB00013600968002900DA01207047103C0240C9
:102AC00023016745AB89EFCD10B5204C10281AD0F3
:102AD000202824D0082830D0012813D10CF01EF96A
:102AE00001280FD004F11001E0690BF049FC2069C6
:102AF000002807D016494FF080500860BFF34F8F71
:102B0000BFF36F8F10BD0C2007F0DEF8607840F047
:102B100001006070A07840F00100A07006E00B207A
:102B200007F0D2F8207840F00100207020790028CA
:102B3000E8D0BDE8104009F04FBB0D2007F0C4F805
:102B4000E07840F00100E07010BD00007800002047
:102B500004ED00E0044910B50A68024202D00860A2
:102B6000FFF7B2FF10BD0000143C01402DE9F84F03
:102B7000DFF88C91002209F1040A0AF1040B4FF0EE
:102B80000F080BF1040E01260B6896403340B34248
:102B900071D14C68022C01D0122C11D1D40800EB59
:102BA00084073D6A5407E40E08FA04FC25EA0C0584
:102BB000D1F810C00CFA04FC4CEA050CC7F820C090
:102BC00007685400032591F804C0A5400CF0030CDD
:102BD000AF430CFA04FC4CEA070CC0F800C04F6885
:102BE000012F05D0022F03D0112F01D0122F11D1A8
:102BF0008768D1F80CC0AF430CFA04FC4CEA070C10
:102C0000C0F808C04768B7430E79C6F3001696406F
:102C10003E434660C668AE438D68A5403543C560F7
:102C20004C68E40065D5374C256845F4804525603F
:102C3000246822F0030504F480440094324C2E19D9
:102C4000D6F808789407250F08FA05F4A7432F4C07
:102C5000A04201D1002424E02D4CA04201D1012446
:102C60001FE02C4CA04201D102241AE02A4CA042C1
:102C700002D1032415E03CE0284CA04201D10424F9
:102C80000FE0274CA04201D105240AE0254CA042C8
:102C900001D1062405E0244CA04201D1072400E024
:102CA0000824AC403C43C6F80848D9F800404D46DB
:102CB0004E689C43F60300D51C432C60DAF80040B4
:102CC00055464E689C43B60300D51C432C60DBF888
:102CD00000405D464E689C43F60200D51C432C60C4
:102CE000DEF8004075464E689C43B60200D51C4392
:102CF0002C60521C102AFFF446AFBDE8F88F00008C
:102D0000003C0140443802400030014000000240D5
:102D10000004024000080240000C02400010024083
:102D20000014024000180240001C024000690840E4
:102D300000D0012070470AB1816170470904FBE7A8
:102D40000148806870470000AC02002070B50400A4
:102D50001BD094F83D00002520B984F83C50204653
:102D600000F042FA242084F83D002068016821F038
:102D70000101016000F0BEFC4D4B6168994201D831
:102D80004C4900E04C49884201D2012070BD4B49BA
:102D90002268B0FBF1F1566826F03F060E435660FC
:102DA00062689A4206D94FF4967251434FF47A7290
:102DB000B1FBF2F12268491C166A26F03F06314346
:102DC00011626168994210D84900401EB0FBF1F2CF
:102DD000521CC2F30B02042A01D2042022E0B0FBF1
:102DE000F1F0401CC0F30B001CE0A268F2B301EB51
:102DF000C10303EB0116431EB3FBF6F35B1C43F464
:102E000080431B0549D092B301EBC10202EB0111D3
:102E1000401EB0FBF1F0401CC0F30B0040F48040BA
:102E200040F400402168CA694CF6FF739A4310438E
:102E3000C861D4E9071001432068026822F0C0028B
:102E400011430160D4E9030101432068826848F21C
:102E5000FF339A4311438160D4E905100143206890
:102E6000C26822F0FF021143C16001E00EE016E0EB
:102E70002068016841F0010101602564202084F888
:102E80003D00256384F83E50002070BD01EB4106F3
:102E9000431EB3FBF6F35B1CB3E70120C2E701EB73
:102EA0004101401EB0FBF1F0401CC0F30B00B7E73E
:102EB000A086010080841E0000093D0040420F00F2
:102EC0002DE9FF4F83B09A46DDE9119793460446FA
:102ED000DDF84080FFF734FF054694F83D002028D8
:102EE00070D11923012271492046009501F0DEFDC1
:102EF0000028F5D194F83C00012863D0012084F823
:102F00003C0020680168C90703D1016841F0010154
:102F100001602068016821F400610160222084F8CA
:102F20003D00402084F83E0000262664C4F824803A
:102F3000A4F82A90608D20855D48E062CDE9007597
:102F400053465A462046049901F0CCFC00287CD117
:102F5000208DD0B1012821D00228206824D04169D9
:102F600080690090208D032869D801282BD0514911
:102F700002283B464FF00002009559D08846204673
:102F800001F094FD002860D13CE02068416981692E
:102F90000091016841F40071016077E020680168E8
:102FA00021F480610160F0E7016821F48061016033
:102FB0002068016841F4006101602068416980690E
:102FC000009063E06FE02A463946204601F0EEFDAE
:102FD00098BB20680069616A08704EE0206801684B
:102FE00041F40071016020680069616A0870606ADC
:102FF000401C6062218D491E2185618D491E6185BD
:10300000216838E02068016821F48061016020684F
:103010000069616A0870606A401C6062208D401E11
:103020002085608D401E60853B460022414600950C
:10303000204601F03BFD00B9D0E706E0FFE72A4655
:103040003946204601F0B2FD18B1012007B0BDE8B5
:10305000F08F20680069616A0870606A401C6062D5
:10306000218D491E2185618D491E618521684A692E
:10307000D24352070AD409690170606A401C606239
:10308000208D401E2085608D401E6085208D00288B
:103090007FF468AF202084F83D0084F83E6084F817
:1030A0003C600020D2E70220D0E7000002001000C0
:1030B0000000FFFF040001002DE9FF4F83B09A4696
:1030C000DDE9119793460446DDF84080FFF738FEAE
:1030D000054694F83D0020287FD11923012240495C
:1030E0002046009501F0E2FC002876D194F83C00DF
:1030F000012872D0012084F83C0020680168C907CB
:1031000003D1016841F0010101602068016821F4E8
:1031100000610160212084F83D00402084F83E00D9
:1031200000262664C4F82480A4F82A90608D2085A7
:103130002C48E062CDE9007553465A462046049972
:1031400001F044FC70B930E02A463946204601F0CF
:1031500062FD58B1206C042804D12068016841F454
:1031600000710160012007B0BDE8F08F606A21683E
:1031700000780861626A521C6262208D401E80B233
:103180002085618D491E618521684B69DB435B07A2
:103190000BD468B110780861606A401C6062208DB1
:1031A000401E2085608D401E6085208D0028CBD17B
:1031B0002A463946204601F053FC0028CAD154F86B
:1031C0003D0B016841F400710160202004F81E09E4
:1031D000E67766770020C6E7FFE70220C3E7000036
:1031E000020010000000FFFF2DE9F04387B0054604
:1031F00014216846FDF765FA4B4E4A4B29680024B6
:1032000049481222032710364FF001084FF00409F5
:10321000994218D1016841F00201016000686946D5
:1032200000F00200059038028DE80501CDE9037930
:103230003E48FFF79BFC306840F400103060306877
:1032400000F400106CE03A4B99423BD1016841F028
:10325000200101600068CDE9007200F02000CDE996
:103260000490CDE9028769463248FFF77FFC306859
:1032700040F4800030603068304E00F480000590EB
:103280002D4830604FF0606070604020C6E9020455
:103290000001C6E90404C001B461C6E90740304634
:1032A0007462FFF7FDFA08B1FEF741FA23486E6336
:1032B000A838B5630068416841F40061416007B017
:1032C000BDE8F0831E4B9942F9D1016841F0040139
:1032D0000160016801F004010591016841F00101FC
:1032E00001600068144600F00100059058158DE853
:1032F0001101CDE9037969461248FFF737FC4FF415
:1033000080708DE81101CDE9037969460E48FFF719
:103310002DFC306840F400003060306800F400009C
:103320000590CCE7005400403038024000040240D1
:103330000058004000140240B8600240D41E002033
:10334000005C004000080240000002400248816822
:103350000278114481607047AC0200200B4810B520
:10336000016841F400710160016841F4806101600D
:10337000016841F480710160032000F073F80F20B0
:1033800000F006F800F024F8002010BD003C0240D8
:1033900070B50D4D04464FF47A712878B1FBF0F00A
:1033A0000A490968B1FBF0F000F0FFFD48B9102CA4
:1033B00007D200222146501E00F034F800206C6035
:1033C00070BD012070BD0000AC020020B8020020DA
:1033D0000C4882B0016841F480410160006800F44B
:1033E000804000900748001F016841F08051016053
:1033F0000068002200F0805000900F21901E02B063
:1034000000F010B844380240002809DB00F01F0229
:10341000012191404009800000F1E020C0F8001136
:1034200070470000F0B40E4B1B68C3F30223C3F1D6
:103430000704042C00D904241D1D072D01D20023EC
:1034400000E0DB1E012606FA04F56D1E0D409D40CE
:103450009E40761E164045EA0601F0BC04F098BB7B
:103460000CED00E0064A00F0070110684FF6FF037C
:10347000184040EA012003490843106070470000EB
:103480000CED00E00000FA052DE9F8430446006861
:103490004FF00109C1074FF0000501D1400726D5C3
:1034A000DFF80C81C8F86850FFF74AFC0646414F28
:1034B00004E0FFF745FC801B022857D8386800015C
:1034C000F7D46068217A800140EA0170394984317B
:1034D0000860C8F86890FFF733FC064604E0FFF781
:1034E0002FFC801B022841D838680001F7D52078CE
:1034F000800752D52F484030016841F0805101606B
:1035000000682D4F00F080500090386840F48070C3
:103510003860FFF715FC064604E0FFF711FC801B3E
:10352000022823D83868C005F7D5224E7036306897
:1035300010F4407020D0A18901F4407181421BD069
:1035400030681E4920F44070C1F800900D60306072
:103550003068C00710D0FFF7F3FB054641F288370B
:1035600007E0FFF7EDFB401BB84202D90320BDE89E
:10357000F88330688007F4D5E0680E49C0F3012273
:103580000831032A0BD0086820F4F810086030686E
:10359000A189C1F30B01084330600020E7E70A6806
:1035A000074B22F4F812184002430A60EFE70000CC
:1035B000000047420038024000700040400E474281
:1035C000FFFCFF0F2DE9F0470D46040065D0DFF842
:1035D0001491D9F80000EFB200F00F00A84207D212
:1035E00089F80070D9F8000000F00F00A84254D10B
:1035F00020683D4E810712D5400703D5306840F45E
:10360000E05030602078000703D5306840F4604017
:1036100030603068A16820F0F00008433060207806
:10362000C0072DD0304960680839012812D002281F
:1036300013D0032811D00968890700292DDA3168D1
:1036400021F0030101433160FFF77AFB804641F22C
:10365000883A0EE009688903EFE709688901ECE719
:10366000FFF76EFBA0EB0801514502D90320BDE82E
:10367000F0873068616800F00C00B0EB810FEFD18B
:10368000D9F80010484601F00F01A94207D9077088
:10369000006800F00F00A84201D00120E7E7207881
:1036A000400705D53068E16820F4E05008433060F9
:1036B0002078000706D53068216920F4604040EA90
:1036C000C100306000F036F83168084AC1F30311D8
:1036D000515CC840064908600F20FFF759FE0020E2
:1036E000C5E70000003C024008380240E60B010834
:1036F000B80200200448054900680968044AC1F37B
:103700008221515CC8407047B8020020083802404E
:10371000F60B01080448054900680968044AC1F32A
:103720004231515CC8407047B8020020083802405E
:10373000F60B0108154810B5006810F00C0114488C
:1037400013D0144B04290FD008290ED10F4C241F7D
:10375000216801F03F022168490207D52068C0F3C3
:103760008810A0FB030106E0184610BD2168C1F3D4
:103770008811A1FB00010023FCF76CFE2168C1F356
:103780000141491C4900B0FBF1F010BD083802406E
:103790000024F400001BB7002DE9F84F040073D09B
:1037A0002078BD4DC00748D0BB4808300168C1F340
:1037B0008101012908D00068C0F3810002280AD1E4
:1037C000281D0068400206D52868800335D560684A
:1037D0000028E4D031E06068B0F5803F10D0B0F54B
:1037E000A02F286810D020F480302860286820F4AA
:1037F000802028606068A0B1FFF7A2FA06460CE0BE
:10380000286840F48030F4E740F480202860F7E72F
:10381000FFF796FA801B642872D828688003F7D5D2
:103820000BE0FFF78DFA064604E0FFF789FA801BEC
:103830006428F1D828688003F7D42078DFF85C92F8
:1038400080074FF0000A3ED593480830016811F018
:103850000C0F09D00068C0F3810002280BD18E48FC
:10386000001D0068400206D42868800715D5E0686E
:10387000012809D111E0E068B8B10120C9F80000C1
:10388000FFF75EFA064605E003E1FFF759FA801BF1
:103890000228C1D828688007F7D52868216920F058
:1038A000F80040EAC10028600DE0C9F800A0FFF769
:1038B00047FA064604E0FFF743FA801B02281FD8A8
:1038C00028688007F7D42078000722D5724F744902
:1038D0006069743770B101200860FFF731FA06465D
:1038E00004E0FFF72DFA801B022809D8386880070A
:1038F000F7D50EE0C1F800A0FFF722FA064605E072
:1039000081E0FFF71DFA801B02287CD83868800709
:10391000F7D42078400769D5DFF87CB14FF0000874
:103920000BF1400BDBF80000C0000CD4DBF80010FA
:1039300041F08051CBF80010DBF800004FF0010897
:1039400000F080500090574F3868C0050FD4386899
:1039500040F480703860FFF7F3F9064604E0FFF7A3
:10396000EFF9801B02284ED83868C005F7D54A4FBA
:10397000A068703701280FD00528386810D020F0D3
:1039800001003860386820F004003860A068B0B1E9
:10399000FFF7D6F906460EE0386840F00100F4E77C
:1039A00040F004003860F7E7FFF7CAF9811B41F2E5
:1039B0008830814265D838688007F5D50DE0FFF77B
:1039C000BFF9064606E0FFF7BBF9811B41F28830DC
:1039D000814256D838688007F5D4B8F1000F05D079
:1039E000DBF8001021F08051CBF80010A069C8B3BB
:1039F000294908310968C1F38101022949D0022807
:103A0000504607D000E03CE0C9F86000FFF798F9A5
:103A1000044639E04F46C9F86000FFF791F90646C1
:103A200004E0FFF78DF9801B02282AD8286880015E
:103A3000F7D4D4E907010843A16A1B4A490802EBFD
:103A40000141626A41EA8211084394F82C1040EA6D
:103A500001611148001D016001203866FFF770F90F
:103A6000044605E013E0FFF76BF9001B022808D8B5
:103A700028688001F7D50AE0FFF762F9001B0228E9
:103A800002D90320BDE8F88F28688001F4D4002013
:103A9000F8E70120F6E70000003802400000474246
:103AA000800E4742007000400000FFFF70B5040028
:103AB00003D06079002510B105E0012070BD2571AB
:103AC000204600F00DF8022060712068016841F086
:103AD0000401016001206071A560002070BD00003C
:103AE00008B500680649884208D10648016841F0D7
:103AF00040010160006800F04000009008BD000037
:103B0000000806503438024070B5040002D0607FCF
:103B100010B106E0012070BD00202077204600F0A3
:103B200049F8022060772168CA2048622168532042
:103B30004862204602F07CF9FF25042618BB206865
:103B400081681B4A11408160206881686268114366
:103B5000D4E904231A43114381602168E0680861B5
:103B600020680169228941EA024101612068C16837
:103B700021F08001C16020688068800607D420465B
:103B800000F024F818B1206845626677C2E7206823
:103B9000016C21F4802101642068016CA269114349
:103BA00001642068456201206077002070BD00003C
:103BB000BFFF8FFF00680349884202D102490120FC
:103BC00008607047002800403C0E474270B505462B
:103BD0000068C16821F0A001C160FFF7B1F8044698
:103BE0004FF47A7606E0FFF7ABF8001BB04201D93C
:103BF000032070BD2868C0688006F4D5002070BD21
:103C000070B5040005D00025A56294F8510010B1EC
:103C100006E0012070BD84F85050204600F030F8D6
:103C2000022084F851002068016821F04001016001
:103C3000D4E901010843D4E903121143084361693F
:103C40000843218B01F400710843E1690843216AAC
:103C50000843A16A084321680860A069042101EAB9
:103C60001040616A0843216848602068C16921F4F6
:103C70000061C1616565012084F85100002070BDBC
:103C80002DE9F04786B0044614216846FCF719FD7B
:103C900048492068484A022601270323DFF81C818F
:103CA00000254FF0050C88425ED14348143001686E
:103CB00041F480510160006800F480500590106864
:103CC00040F002001060106800F0020005901068DB
:103CD00040F0010010601068994600F00100059066
:103CE0001820E2468DE8C10669464046FEF73EFFD1
:103CF00080208DE8C10669463148FEF737FF324E15
:103D000030484FF0C0673060C6E901754FF48068F5
:103D1000C6E9035875617812B561C6E907503046A7
:103D20007562FEF7BDFD08B1FDF701FDE664B46301
:103D3000254E244860361830E6E802074020A6E801
:103D40002101C00246F81459B561C6E907501E4862
:103D500075626030FEF7A4FD08B1FDF7E8FCA664CB
:103D6000B46306B0BDE8F08718498842F9D112481B
:103D70001030016841F480410160006800F4804027
:103D80000590106840F0020010601068694600F06D
:103D9000020005904FF460408DE8C100CDE9033C7E
:103DA0004046FEF7E3FE012001F000FF002001F095
:103DB000F1FED6E7003001403038024000040240F6
:103DC00000000240406402401420002000380040FF
:103DD0002DE9F84F044690F8500001250A9E1F4631
:103DE00092468B464FF0000801280ED0012084F83F
:103DF0005000FEF7A5FF814694F851006168012844
:103E00000CD0B1F5827F07D102E00220BDE8F88F27
:103E1000A16809B9042801D00220B6E0BBF1000F67
:103E200027D0BAF1000F24D01FB394F85100042812
:103E300002D0052084F8510000206065C4F838A045
:103E4000E787A787C4F830B0E786A7862064606458
:103E500020680168490603D4016841F0400101600F
:103E6000E068B0F5006F606805D0E8B3012F43D07B
:103E700079E0012089E008B1012F34D1206B21685D
:103E80000088C860206B801C2063E08E401EE086A6
:103E900029E02068816889070DD5E18E59B1012D8F
:103EA00009D1216B0988C160206B801C2063E08EE2
:103EB000401EE086002520688168C9070BD0E18F8D
:103EC00049B1C068A16B0880A06B801CA063E08F23
:103ED000401EE0870125FEF733FFA0EB0900B0424A
:103EE00001D3701C50D100E006E0E08E0028D0D154
:103EF000E08F0028CDD13CE0206B2168007808736A
:103F0000206B401C2063E08E401EE0862BE0206882
:103F1000816889070DD5E18E59B1012D09D1216B39
:103F200009780173206B401C2063E08E401EE08600
:103F3000002520688168C9070BD0E18F49B1C068AE
:103F4000A16B0870A06B401CA063E08F401EE0874F
:103F50000125FEF7F5FEA0EB0900B04202D3701C6C
:103F600001D011E086B1E08E0028D0D1E08F00288A
:103F7000CDD14A463146204603F030F938B12020F1
:103F80004FF00108606508E00320804605E0A06866
:103F900018B92068C16880680090012084F8510039
:103FA000002084F85000404630E710B5401EB0F1C4
:103FB000807F01D3012010BD4FF0E02460610F210C
:103FC000601703F0E5FD0020A061072020610020BC
:103FD00010BD10B590F83C20012A22D0012280F8B3
:103FE0003C20CA688C6822F4407222434C6822F458
:103FF000806222430C6822F4006222430C6922F49E
:10400000805222434C6922F400522243C9690023A2
:1040100022F480420A4301684A6480F83C30002060
:1040200010BD022010BD70B590F83C20012A19D0B7
:10403000012500F83C5F0222427050F83C2C536886
:10404000946823F070060B684968334324F08004B9
:104050002143536050F83C2C916045700021017061
:10406000084670BD022070BD10B5040003D094F85E
:104070003D0010B107E0012010BD002084F83C0095
:10408000204600F00DF8022084F83D00211D206834
:1040900003F09AF9012084F83D00002010BD0000D3
:1040A00008B500682249234A884207D1106840F0C9
:1040B00001001060106800F001000AE01D491E4B6D
:1040C000091F984207D1086840F00200086008689C
:1040D0001FE0009008BD194B984207D1086840F0D6
:1040E00004000860086800F00400F2E7144B9842EE
:1040F00007D1086840F008000860086800F0080070
:10410000E7E71049884207D1106840F002001060CC
:10411000106800F00200DCE70B498842DAD1106831
:1041200040F400301060106800F40030D1E7000067
:1041300000000140443802400004004000080040F4
:10414000000C00400004014000440140022180F8BE
:104150003D1001688A6802F00702062A03D00A6847
:1041600042F001020A60012180F83D1000207047F2
:1041700070B5044690F83C00012817D0012584F85A
:104180003C50022084F83D002068826822F07702CB
:1041900022F47F4282600868502830D00DDC20284D
:1041A0004DD005DC98B310283BD148E0022070BD0B
:1041B000302844D0402834D139E0602828D07028F5
:1041C00006D0B0F5805F2CD0B0F5005F29D10AE0B1
:1041D000CB68D1E90121206803F067F92068816884
:1041E00041F0770109E0CB68D1E90121206803F0B3
:1041F0005CF92068816841F48041816011E0CA68FF
:104200004968206803F026FA5021206807E016E08C
:10421000CA684968206803F02EFA6021206803F01C
:104220004EF984F83D50002084F83C0070BDCA6807
:104230004968206803F00EFA40212068EFE7226801
:1042400001461046EBE700002DE9F04186B0044638
:1042500014216846FCF735FA6D4A20686D4902243E
:104260000125904223D1086840F0100008600868DA
:10427000694600F0100005904FF4D4408DE83100FD
:104280006548CDE90345FEF771FC6448FFF75EFF22
:104290000021624800F05EF90421604800F05AF9FC
:1042A00008215E4800F056F90C215C481CE05C4A8D
:1042B000DFF8708190421CD1086840F0040008606B
:1042C0000868694600F00400059090158DE83100FB
:1042D000039440460494FEF749FC50484030FFF7F1
:1042E00035FF4E480821403000F034F906B0BDE8F3
:1042F000F0814D4A0326904217D1086840F008002B
:1043000008600868694600F00800059010148DE800
:10431000710046480494FEF729FC40488030FFF7BE
:1043200015FF3E4808218030DEE7414A904223D104
:10433000086840F0800008600868694600F0800066
:1043400005904FF4E0508DE831000394394804940F
:10435000FEF70CFC3148C030FFF7F8FE2F48002173
:10436000C03000F0F7F82D480421C03000F0F2F81A
:104370002A480821C030B7E72F4A402790422BD166
:10438000086840F480700860086800F48070059048
:10439000086840F00400086008680097CDE901450E
:1043A00000F00400CDE90460694603942348FEF759
:1043B000DDFB0097CDE90145CDE90346694640465E
:1043C000FEF7D4FB1E48FFF7C1FE00211C4800F099
:1043D000C1F804211A4887E71A4A904286D1086832
:1043E00040F02000086008680097CDE9014500F022
:1043F0002000CDE90460694603941348FEF7B6FB3C
:104400000F484030FFF7A2FE0D48002140306BE717
:10441000000001403038024000100240D42000204B
:10442000000400400008024000080040000C024068
:10443000000C0040001C024000040140002002402B
:10444000D4210020004401400014024070B504460D
:1044500090F83C000D4601280DD0012684F83C6000
:10446000022084F83D0042B1042A18D0082A2AD03C
:104470000C2A4DD139E0022070BD206803F028F8E5
:104480002068816941F0080181612068816921F01B
:1044900004018161206881692A69114311E0206863
:1044A00003F046F82068816941F400618161206869
:1044B000816921F480618161206881692A6941EA0A
:1044C0000221816124E0206803F068F82068C16956
:1044D00041F00801C1612068C16921F00401C16196
:1044E0002068C1692A69114311E0206803F08AF845
:1044F0002068C16941F40061C1612068C16921F48B
:104500008061C1612068C1692A6941EA0221C161F3
:1045100084F83D60002084F83C0070BD10B50400B4
:1045200003D094F83D0010B107E0012010BD002039
:1045300084F83C00204600F00CF8022084F83D008E
:10454000211D206802F040FF012084F83D0000207A
:1045500010BD704710B504460068012202F098FFB4
:104560000B482168814202D00A48814203D1486C3D
:1045700040F4004048642068816801F00701062982
:1045800003D0016841F001010160002010BD00006E
:10459000000001400004014070B5040004D094F80C
:1045A0003900002510B106E0012070BD84F83850B4
:1045B000204600F023F8242084F839002068C168E0
:1045C00021F40051C160204603F068F820680169B9
:1045D00021F4904101612068416921F02A01416183
:1045E0002068C16841F40051C160E563202084F86F
:1045F000390084F83A00002070BD00002DE9F04F2A
:1046000087B0044614216846FCF75BF89C48DFF845
:104610006C8214380221D4F800C0DFF864920122C1
:1046200003230F04002506154FF0070EC44574D16F
:10463000D9F8008048F01008C9F80080D9F800C007
:104640000CF0100CCDF814C0D0F800C04CF0020CE7
:10465000C0F800C0D0F800C00CF0020CCDF814C0B7
:10466000D0F800C04CF0010CC0F800C000688B46C8
:1046700000F0010005908020CDE9000B0292CDE909
:10468000033E92469846F14669467E48FEF76EFA2A
:104690007010CDE9000BCDF808A069467A48CDE945
:1046A0000389FEF763FADFF8E8A1784950464FF036
:1046B0000068E0E80218402162C0B94640F8145989
:1046C0008561C0E907575046CAF82450FEF7E8F85C
:1046D00008B1FDF72CF86E4F6C48C4F830A0603775
:1046E0003038CAF838403860C7E90185C7E9035651
:1046F0007D61BD61C7E9075938467D62FEF7D0F894
:1047000008B1FDF714F86763002205212520BC637A
:10471000FEF788FE25204BE0FFE7DFF87881C445EF
:104720004BD1DFF85CC1ACF1040CDCF8008048F43C
:104730008028CCF80080DCF800C00CF4802CCDF888
:1047400014C0D0F800C04CF0040CC0F800C00068E1
:1047500000F0040005904FF440608DE80F4069467A
:104760004D48FEF703FADFF828814C4908F1C008EC
:104770004046C8F800104FF00061C0E90115C0E9DB
:104780000356C8F81450C8F81850C8E90757C8F8B5
:104790002450FEF785F808B1FCF7C9FFC4F834804F
:1047A000002204212720C8F83840FEF73BFE2720CE
:1047B000FEF72AFE07B0BDE8F08FDFF8E480C445BD
:1047C000F8D1D9F8008048F02008C9F80080D9F85D
:1047D00000C00CF0200CCDF814C0D0F800C04CF094
:1047E000400CC0F800C0006800F0400005904FF495
:1047F00084408DE80F000820049069462948FEF7A0
:10480000B5F92249DFF8A080903940464FF0206981
:10481000C8F80010C0E90195C0E90356C8F8145063
:10482000C8F81850C8E90757C8F82450FEF738F8F8
:1048300008B1FCF77CFF1C4F1448C4F83480603783
:104840001838C8F83840E7E80209402061C78002FC
:1048500047F81459BD61C7E9075013487D626030BD
:10486000FEF71EF808B1FCF762FF2763002205215E
:104870004720BC63FEF7D6FD472099E700100140B2
:10488000443802400004024000000240B864024084
:104890001423002000480040000802402860024025
:1048A000001401400018024034240020012080F34D
:1048B000138803F07DF901684A69D24352050FD489
:1048C0006FF480624A61002140F8301F2022427359
:1048D0008173026942F00402026101730120704792
:1048E000002070472DE9F84F0446006889460B9E6A
:1048F00001689846174641F48061016020680168AC
:1049000041F48071016000964FF0011A0022514677
:1049100020460A9B00F0CAF8002853D1216809F00C
:10492000FE0008610AF1010B3346594620460A9AF7
:1049300000F0F0F8F0BB20684169806900903246D1
:1049400020460A9900F067F940B1206C042839D15B
:104950002068016841F40071016033E0FDB2B8F1F4
:10496000010F09D02168380A0861324620460A99A9
:1049700000F051F90028E8D1206805613246204650
:104980000A9900F048F90028DFD12068016841F455
:104990008071016000960022514620460A9B00F07B
:1049A00085F838B9216809F0FF0040F0010008617E
:1049B000334600E006E0594620460A9A00F0AAF87D
:1049C000002800D00120BDE8F88F00002DE9F84351
:1049D000044600680D46DDE90897016898461646CA
:1049E00041F4807101604B4600224FF001112046D6
:1049F000009700F05BF8E0B9216805F0FE0008615F
:104A00003B464A461549204600F084F888B920689C
:104A10004169806900903A464946204600F0FBF81B
:104A200050B1206C042804D12068016841F4007161
:104A300001600120BDE8F883F5B2B8F1010F09D09B
:104A40002168300A08613A464946204600F0E3F8FA
:104A50000028E6D1206805610020EBE70200010094
:104A600070B516460D4604460DE02046FFF723FFBD
:104A700008B1012070BD681C05D0FEF761F9801BEC
:104A8000A84207D835B120684069C0434007ECD43C
:104A9000002070BD002044F8300F20216173A07306
:104AA000216941F0200121612073E2E72DE9F047FF
:104AB0001D4690460E460446C1F30747DDF8209098
:104AC00008E0681C06D0FEF73BF9A0EB0900A842FD
:104AD0000FD875B12068012F18D0806926EA000030
:104AE0000004000C14D000204045EAD00020BDE8AE
:104AF000F087002044F8300F20216173A0732169F2
:104B000041F02001216120730120F0E74069E5E7D1
:104B10000120E9E72DE9F047984615460E46044680
:104B20004FF000094FF0200AC1F3074723E0206847
:104B30004069C043400515D42068016841F4007104
:104B4000016021686FF480604861C4F8309084F897
:104B50003DA084F83E90216C41F00401216484F86A
:104B60003C901EE0681C06D0FEF7EAF8A0EB0800B7
:104B7000A8420AD84DB12068012F15D0806926EAD5
:104B800000000004000C0DD0D1E744F8309F84F8F9
:104B90000DA084F80E90216941F02001216184F874
:104BA0000C900120BDE8F0874069E8E72DE9F0416D
:104BB00016460D46044600274FF0200817E04069CE
:104BC000C043C0060DD454F8301B6FF0100048618C
:104BD00044F80D7B04F81D89A777206A20622777A7
:104BE00017E0FEF7ADF8801BA84208D83DB1206859
:104BF0004169C9434906E2D40020BDE8F08144F888
:104C0000307F84F80D80A773206940F02000206178
:104C100027730120F1E770B516460D4604460DE0F6
:104C20002046FFF748FE08B1012070BD681C05D082
:104C3000FEF786F8801BA84207D835B12068406986
:104C4000C0430006ECD4002070BD002044F8300FB3
:104C500020216173A073216941F02001216120733B
:104C6000E2E7000030B504461088154D0B4668B9E0
:104C700005F10C0090ED000A85ED000A90ED010AA7
:104C800085ED010A90ED020A85ED020A0C490C48F7
:104C9000D03907F005FA95ED000A83ED000A95ED8D
:104CA000010A83ED010A95ED020A83ED020AB7EECF
:104CB000000A84ED000A84ED010A84ED020A30BD89
:104CC000501C0020084891ED000A80ED000AD1ED4B
:104CD000010AC0ED010A91ED021A80ED021A0C38AA
:104CE00080EC030A704700005C1C00200EB5072012
:104CF00000E0642007F0ACFCFCF740F90028F8D194
:104D000002E0642007F0A4FC07F0A2FB0028F8D121
:104D1000984A101DCDE90102A2F11005291DFCF7EA
:104D200045F91822A5F16C01934806F078FA9248EB
:104D300001226946183006F072FA904C9DF8000086
:104D40004FF0010BA071552802D084F807B004E0A1
:104D5000884800217C3804F093F8DFF818A20AF1A3
:104D6000380AAAF14803A3F19402A2F10C01A1F1BF
:104D70000C00CDF800A007F0B9F99FED812ADFED16
:104D8000811A9FED811ADFED810A9FED810A0AF1F8
:104D9000400000F09DFFAAF1DC02A2F10C0101F13C
:104DA0001800FBF757FEAAF1E809A9F1180699EDDA
:104DB000000AA6F10C0786ED000AA6F1180887ED97
:104DC000000A88ED000A99ED010A002086ED010A2B
:104DD00087ED010A88ED010A99ED020A86ED020AC3
:104DE00087ED020A88ED020A07F072FC09F054FF11
:104DF0006849E0611020C8610846FEF701FF08B16C
:104E0000FCF795FC5D4908222C31A1F1080002F065
:104E100065F984F804B04FF0FF3B5946012008F0D3
:104E200055FF0128F9D12078000708D5207820F017
:104E300008002070514801992D30FCF76FF8607818
:104E400040070AD5607820F004006070494A291DA7
:104E50001032A2F12A00FCF717F8A07840070CD511
:104E6000A07820F00400A070444802992230FCF79A
:104E700077F995ED040A07F03BFA3E4BCDF800A018
:104E8000103BA3F19402A2F10C01A1F10C0007F078
:104E90002DF997ED000A88ED000AD6ED000AC7ED5E
:104EA000000A9FED3D1ADFED3D1A9FED3D2A60EEB1
:104EB000810A304BA43B40EE210A99ED000AA3F190
:104EC000240202F10C0101F1240040EE020AC6EDB9
:104ED000000A97ED010A88ED010AD6ED010AC7ED37
:104EE000010A60EE810A40EE210A99ED010A40EEC6
:104EF000020AC6ED010A97ED020A88ED020AD6ED14
:104F0000020AC7ED020A60EE810A40EE210A99ED1D
:104F1000020A40EE020A9FED230AC6ED020AFBF7E1
:104F2000F3FE06F00BFBE079012807D111480121BF
:104F30007C3803F0A5FF08B10020E0710D4B803BE9
:104F40001A1F111FA1F1100006F062FA094854302F
:104F500006F034FAE07810F00100E0703FF45DAF45
:104F6000E07820F00100E070E07840F00200E070AE
:104F700053E700003C1C002000000A0878000020D5
:104F80000080894500A08C4500000000CDCC4C3E3F
:104F90000000C844641F00205AF8F63F5D896EBFC8
:104FA000D5A9183B6F12833A10B504462DED088B36
:104FB000B0EE40BAF0EE60BA90ED002B90ED081B19
:104FC00090ED029B90ED06AB53EC122B51EC110BC4
:104FD0000AF0C8F941EC180B53EC192B0AF0C2F98E
:104FE00041EC110B51EC180B53EC112B0AF0ECFABD
:104FF00041EC190B53EC1A2B51EC1B0B0AF0D2FEAF
:1050000053EC192B0AF0FEFC53EC1A2B0AF0AAF908
:105010009FED0C0B41EC1A0B53EC192B51EC100BC0
:105020000AF0C0FE53EC182B0AF0ECFCC4E90801AE
:1050300084ED06ABB0EE4A0AF0EE6A0ABDEC088BCE
:1050400010BD0000000000000000F03FB4EEE00AD8
:10505000F1EE10FA02DDB0EE600A7047B4EEC10A5C
:10506000F1EE10FAF9D2B0EE410A70477FB5002494
:1050700015480094019402941249039401604FF47E
:105080000031C0E901140461047680F820400F4922
:10509000C0E90A140125C561C46080F8304045614B
:1050A000FCF7F6FC08B1FCF742FB1020CDE9000547
:1050B000694602940448FCF745FC002801D0FCF73F
:1050C00036FB7FBD00200140F81C00200100000FCE
:1050D0007FB500241548009401940294124903946A
:1050E00001604FF40031C0E901140461047680F8D6
:1050F00020400F49C0E90A140125C561C46080F849
:1051000030404561FCF7C4FC08B1FCF710FB0820F7
:10511000CDE90005694602940448FCF713FC002819
:1051200001D0FCF704FB7FBD00220140401D0020A0
:105130000100000F104810B50E49016003214160C5
:1051400000214FF410228160C0E903124FF40012D5
:1051500042610176417681760122C27601774177FC
:10516000FCF777FF002803D0BDE81040FCF7DFBA5A
:1051700010BD000000640040881D0020104810B5DC
:105180000E4901600321416000214FF4102281602B
:10519000C0E903124FF40012426101764176817634
:1051A0000122C27601774177FCF753FF002803D034
:1051B000BDE81040FCF7BBBA10BD0000006800401D
:1051C000B01D0020074910B5054808600846FDF7E6
:1051D00070FA002803D0BDE81040FCF7A8BA10BD53
:1051E000003002402C010020294808B5016841F434
:1051F00080010160016801F480010091016841F4BF
:10520000001101600068002200F4001000900521E8
:105210000C20FEF707F90C20FEF7F6F80022052116
:105220002F20FEF7FFF82F20FEF7EEF800220521D1
:105230003920FEF7F7F83920FEF7E6F800220521BD
:105240003A20FEF7EFF83A20FEF7DEF800220521BB
:105250003B20FEF7E7F83B20FEF7D6F800220521B9
:105260004420FEF7DFF84420FEF7CEF800220521A7
:105270004520FEF7D7F84520FEF7C6F800220521A5
:105280004620FEF7CFF8BDE808404620FEF7BCB840
:105290003038024010B5B2B01C2227496846FBF7EF
:1052A000B4F90021684607F0E9F9244C22491C2290
:1052B00020601C3107A8FBF7A8F9002107A807F018
:1052C000DDF91D4960601C2238310EA8FBF79DF9FD
:1052D00000210EA807F0D2F91749E0601C225431D2
:1052E00015A8FBF792F9002115A807F0C7F9124994
:1052F00020611C2270311CA8FBF787F900211CA833
:1053000007F0BCF90C4960611C228C3123A8FBF723
:105310007CF9002123A807F0B1F90749A0601C22FD
:10532000A8312AA8FBF771F900212AA807F0A6F9ED
:10533000606132B010BD0000940701080000002039
:105340002DE9F04387B014216846FBF7BAF96848A5
:105350000025016841F002010160016801F00201CD
:105360000591016841F040010160016801F04001D0
:105370000591016841F001010160016801F001013E
:105380000591016841F008010160016801F0080120
:105390000591016841F004010160016801F0040118
:1053A0000591016841F480710160016801F4807128
:1053B0000591016841F020010160016801F02001C0
:1053C0000591016841F080010160016801F08001F0
:1053D0000591016841F0100101600068454F00F03F
:1053E00010000590012240213846FDF7A4FCDFF8AB
:1053F0000881012210214046FDF79DFCDFF8FC905A
:10540000012241F201014846FDF795FC8020CDE9DB
:1054100000050124694602943948FDF7A7FB4020A6
:10542000CDE900040294694638460394FDF79EFBDB
:10543000344E0920CDE90006694602943846FDF74E
:1054400095FB0720CDE900052F4F694638460295A8
:10545000FDF78CFBCDE90045694640460294FDF717
:1054600085FB1020CDE90004022569464046CDE9C0
:105470000245FDF77BFB3020CDE90006694602942A
:105480003846FDF773FB2003CDE90004029469461A
:1054900048460394FDF76AFB009469464846019428
:1054A000CDE90245FDF762FB062100220846FDF723
:1054B000B9FF0620FDF7A8FF002205210920FDF70E
:1054C000B1FF0920FDF7A0FF002205210A20FDF70A
:1054D000A9FF0A20FDF798FF002205211720FDF7FC
:1054E000A1FF1720FDF790FF07B0BDE8F083000093
:1054F0003038024000180240000002400004024020
:105500000020024000002110000802400D4810B5A4
:105510000B4901600C49416000214FF480428160D9
:10552000C0E9031241618161C1610162FDF70EFCB6
:10553000002803D0BDE81040FCF7F9B810BD00000A
:1055400000540040D81D0020801A06000D4810B5F8
:105550000B4901600C49416000214FF48042816099
:10556000C0E9031241618161C1610162FDF7EEFB97
:10557000002803D0BDE81040FCF7D9B810BD0000EA
:10558000005800402C1E0020801A06000D4810B55F
:105590000B4901600C49416000214FF48042816059
:1055A000C0E9031241618161C1610162FDF7CEFB77
:1055B000002803D0BDE81040FCF7B9B810BD0000CA
:1055C000005C0040801E0020801A0600074910B5CC
:1055D000054808600846FEF769FA002803D0BDE8D0
:1055E0001040FCF7A4B810BD00080650341F00207E
:1055F0000C4810B50A49016000217C22C0E9011263
:1056000040F67F42C0E9032141618161FEF77CFAE7
:10561000002803D0BDE81040FCF789B810BD000099
:1056200000280040441F0020104810B50E490160BA
:105630004FF482714160002102228160C0E90312AF
:1056400001224261520282613822C0E9072141628F
:1056500081620A21C162FEF7D3FA002803D0BDE8B7
:105660001040FCF764B810BD00300140641F0020FA
:10567000104810B50E4901604FF48271416000215D
:1056800002228160C0E9031201224261520282615A
:105690003822C0E90721416281620A21C162FEF716
:1056A000AFFA002803D0BDE81040FCF740B810BDA9
:1056B00000380040BC1F002010B588B01C2168468F
:1056C000FAF7FFFF144813490024C0E9001441F21F
:1056D0008731C0E9024104618461FEF7C5FC08B16D
:1056E000FCF725F80C48FEF719FF08B1FCF71FF886
:1056F0006020CDE900040294002269460648049423
:10570000FEF7A4FE08B1FCF712F80348FEF79CFD73
:1057100008B010BD004401401422002010B596B01E
:1057200000240F9410941194129413941C21684631
:105730001494FAF7C6FF202107A8FAF7C2FF3648EB
:1057400034490160A721C0E9011444F61F61C0E992
:1057500003148021C0E90541FEF786FC08B1FBF780
:10576000E6FF4FF480500F900FA92B48FEF700FD85
:1057700008B1FBF7DCFF2848FEF7D0FE08B1FBF7C5
:10578000D6FF139413A924481494FEF74CFC08B1D7
:10579000FBF7CDFF602000904FF47A70CDE9010453
:1057A000039404940594002269461B480694FEF76E
:1057B0004DFE08B1FBF7BBFF042269461648FEF711
:1057C00045FE08B1FBF7B3FF082269461248FEF711
:1057D0003DFE08B1FBF7ABFF0C2269460E48FEF711
:1057E00035FE08B1FBF7A3FF0794089409944FF422
:1057F00000500A94CDE90B4007A907480E94FEF724
:10580000E8FB08B1FBF793FF0348FEF71DFD16B058
:1058100010BD000000000140D420002010B58EB063
:1058200000240794089409940A940B941C21684658
:105830000C94FAF746FF1E481C49C0E9001442F2D6
:10584000CF01C0E9024104618461FEF70DFC08B19B
:10585000FBF76DFF4FF48050079007A91448FEF73F
:1058600087FC08B1FBF763FF1148FEF757FE08B14C
:10587000FBF75DFF0B940BA90D480C94FEF7D3FBCF
:1058800008B1FBF754FF6020CDE900040294082220
:10589000694607480494FEF7D9FD08B1FBF747FFB6
:1058A0000348FEF7D1FC0EB010BD0000000400401C
:1058B0001421002010B58EB0002407940894099498
:1058C0000A940B941C2168460C94FAF7FAFE1E48C1
:1058D0001C490160A721C0E901144FF6FF71C0E91E
:1058E00003148461FEF7C0FB08B1FBF720FF4FF4FF
:1058F0008050079007A91448FEF73AFC08B1FBF75F
:1059000016FF1148FEF70AFE08B1FBF710FF0B94D3
:105910000BA90D480C94FEF786FB08B1FBF707FFB7
:105920006020CDE9000402940822694606480494E8
:10593000FEF78CFD08B1FBF7FAFE0348FEF784FC86
:105940000EB010BD000800405421002010B58EB0EC
:1059500000240794089409940A940B941C21684627
:105960000C94FAF7AEFE26482449C0E900144FF61D
:10597000FF71C0E9024104618461FEF775FB08B163
:10598000FBF7D5FE4FF48050079007A91C48FEF79F
:10599000EFFB08B1FBF7CBFE1948FEF7BFFD08B1DE
:1059A000FBF7C5FE0B940BA915480C94FEF73BFBC7
:1059B00008B1FBF7BCFE6020CDE900040294002290
:1059C00069460F480494FEF741FD08B1FBF7AFFEAE
:1059D000042269460A48FEF739FD08B1FBF7A7FE25
:1059E000082269460648FEF731FD08B1FBF79FFE25
:1059F0000348FEF729FC0EB010BD0000000C00406B
:105A00009421002010B596B000240F9410941194A6
:105A1000129413941C2168461494FAF752FE202124
:105A200007A8FAF74EFE2D482B490160A721C0E9CF
:105A3000011444F61F61C0E9031444618461FEF758
:105A400013FB08B1FBF773FE4FF480500F900FA9C2
:105A50002248FEF78DFB08B1FBF769FE1F48FEF7F1
:105A60005DFD08B1FBF763FE139413A91B48149462
:105A7000FEF7D9FA08B1FBF75AFE602000904FF408
:105A80007A70CDE9010403940494059400226946D8
:105A900012480694FEF7DAFC08B1FBF748FE042230
:105AA00069460E48FEF7D2FC08B1FBF740FE0794AA
:105AB000089409944FF400500A94CDE90B4007A9CB
:105AC00006480E94FEF785FA08B1FBF730FE03484E
:105AD000FEF7BAFB16B010BD00040140D42100202F
